{"abi":[{"type":"function","name":"get","inputs":[],"outputs":[{"name":"","type":"uint256","internalType":"uint256"}],"stateMutability":"view"},{"type":"function","name":"increment","inputs":[{"name":"x","type":"uint256","internalType":"uint256"}],"outputs":[],"stateMutability":"nonpayable"},{"type":"function","name":"incrementWithRevert","inputs":[{"name":"x","type":"uint256","internalType":"uint256"},{"name":"shouldRevert","type":"bool","internalType":"bool"}],"outputs":[{"name":"","type":"uint256","internalType":"uint256"}],"stateMutability":"nonpayable"},{"type":"function","name":"incrementWithRevertPayable","inputs":[{"name":"x","type":"uint256","internalType":"uint256"},{"name":"shouldRevert","type":"bool","internalType":"bool"}],"outputs":[{"name":"","type":"uint256","internalType":"uint256"}],"stateMutability":"payable"},{"type":"function","name":"set","inputs":[{"name":"x","type":"uint256","internalType":"uint256"}],"outputs":[],"stateMutability":"nonpayable"}],"bytecode":{"object":"0x6080604052348015600f57600080fd5b506102318061001f6000396000f3fe60806040526004361061004a5760003560e01c80630436dad61461004f57806360fe47b1146100815780636d4ce63c146100a35780637cf5dab0146100b85780638f9c4749146100d8575b600080fd5b34801561005b57600080fd5b5061006f61006a36600461018c565b6100eb565b60405190815260200160405180910390f35b34801561008d57600080fd5b506100a161009c3660046101c1565b600055565b005b3480156100af57600080fd5b5060005461006f565b3480156100c457600080fd5b506100a16100d33660046101c1565b610160565b61006f6100e636600461018c565b610179565b6000826000808282546100fe91906101da565b909155505081156101555760405162461bcd60e51b815260206004820152601a60248201527f54686973206d6574686f6420616c776179732072657665727473000000000000604482015260640160405180910390fd5b506000545b92915050565b8060008082825461017191906101da565b909155505050565b600061018583836100eb565b9392505050565b6000806040838503121561019f57600080fd5b82359150602083013580151581146101b657600080fd5b809150509250929050565b6000602082840312156101d357600080fd5b5035919050565b8082018082111561015a57634e487b7160e01b600052601160045260246000fdfea26469706673582212209d98ee891d5b3647e1d4e14cbb1d23bfb50ab2265e5271c1e089c6c43a636ffa64736f6c634300081c0033","linkReferences":{}},"methodIdentifiers":{"get()":"6d4ce63c","increment(uint256)":"7cf5dab0","incrementWithRevert(uint256,bool)":"0436dad6","incrementWithRevertPayable(uint256,bool)":"8f9c4749","set(uint256)":"60fe47b1"},"id":0}